{
    "contractName": "Option",
    "abi": [
        {
            "inputs": [],
            "name": "AquisitionDate",
            "outputs": [
                {
                    "internalType": "uint256",
                    "name": "",
                    "type": "uint256"
                }
            ],
            "stateMutability": "view",
            "type": "function"
        },
        {
            "inputs": [],
            "name": "AssetObject",
            "outputs": [
                {
                    "internalType": "uint256",
                    "name": "Value",
                    "type": "uint256"
                },
                {
                    "internalType": "string",
                    "name": "Name",
                    "type": "string"
                },
                {
                    "internalType": "string",
                    "name": "Description",
                    "type": "string"
                },
                {
                    "internalType": "string",
                    "name": "Initials",
                    "type": "string"
                }
            ],
            "stateMutability": "view",
            "type": "function"
        },
        {
            "inputs": [],
            "name": "MaturityDate",
            "outputs": [
                {
                    "internalType": "uint256",
                    "name": "",
                    "type": "uint256"
                }
            ],
            "stateMutability": "view",
            "type": "function"
        },
        {
            "inputs": [],
            "name": "Premium",
            "outputs": [
                {
                    "internalType": "uint256",
                    "name": "",
                    "type": "uint256"
                }
            ],
            "stateMutability": "view",
            "type": "function"
        },
        {
            "inputs": [],
            "name": "Strike",
            "outputs": [
                {
                    "internalType": "uint256",
                    "name": "",
                    "type": "uint256"
                }
            ],
            "stateMutability": "view",
            "type": "function"
        }
    ],
    "bytecode": "608060405234801561001057600080fd5b50610384806100206000396000f3fe608060405234801561001057600080fd5b50600436106100575760003560e01c806340e266ff1461005c57806381531c641461007d5780639f5f356514610092578063c055b2401461009a578063d3e3a0ef146100a2575b600080fd5b6100646100aa565b60405161007494939291906102c9565b60405180910390f35b61008561025d565b60405161007491906102c0565b610085610263565b610085610269565b61008561026f565b60008054600180549192916100be90610313565b80601f01602080910402602001604051908101604052809291908181526020018280546100ea90610313565b80156101375780601f1061010c57610100808354040283529160200191610137565b820191906000526020600020905b81548152906001019060200180831161011a57829003601f168201915b50505050509080600201805461014c90610313565b80601f016020809104026020016040519081016040528092919081815260200182805461017890610313565b80156101c55780601f1061019a576101008083540402835291602001916101c5565b820191906000526020600020905b8154815290600101906020018083116101a857829003601f168201915b5050505050908060030180546101da90610313565b80601f016020809104026020016040519081016040528092919081815260200182805461020690610313565b80156102535780601f1061022857610100808354040283529160200191610253565b820191906000526020600020905b81548152906001019060200180831161023657829003601f168201915b5050505050905084565b60045481565b60075481565b60055481565b60065481565b60008151808452815b8181101561029a5760208185018101518683018201520161027e565b818111156102ab5782602083870101525b50601f01601f19169290920160200192915050565b90815260200190565b6000858252608060208301526102e26080830186610275565b82810360408401526102f48186610275565b905082810360608401526103088185610275565b979650505050505050565b60028104600182168061032757607f821691505b6020821081141561034857634e487b7160e01b600052602260045260246000fd5b5091905056fea2646970667358221220666a120990b50734c286d9e7768fac1efd4ac719d2ba4361681ada75a68198da64736f6c63430008000033",
    "sourcePath": "c:/private/Defi/Options/contracts/option.sol",
    "compiler": {
        "name": "solc",
        "version": "0.8.0+commit.c7dfd78e"
    },
    "functionHashes": {
        "AquisitionDate()": "9f5f3565",
        "AssetObject()": "40e266ff",
        "MaturityDate()": "d3e3a0ef",
        "Premium()": "c055b240",
        "Strike()": "81531c64"
    },
    "gasEstimates": {
        "creation": {
            "codeDepositCost": "180000",
            "executionCost": "226",
            "totalCost": "180226"
        },
        "external": {
            "AquisitionDate()": "1050",
            "AssetObject()": "infinite",
            "MaturityDate()": "1094",
            "Premium()": "1072",
            "Strike()": "1028"
        }
    }
}