{
    "contractName": "PutCall",
    "abi": [
        {
            "anonymous": false,
            "inputs": [
                {
                    "indexed": false,
                    "internalType": "uint256",
                    "name": "value",
                    "type": "uint256"
                },
                {
                    "indexed": false,
                    "internalType": "address",
                    "name": "_from",
                    "type": "address"
                },
                {
                    "indexed": false,
                    "internalType": "address",
                    "name": "_to",
                    "type": "address"
                },
                {
                    "indexed": false,
                    "internalType": "uint256",
                    "name": "date",
                    "type": "uint256"
                }
            ],
            "name": "AddedPremium",
            "type": "event"
        },
        {
            "anonymous": false,
            "inputs": [
                {
                    "indexed": true,
                    "internalType": "address",
                    "name": "_from",
                    "type": "address"
                },
                {
                    "indexed": true,
                    "internalType": "address",
                    "name": "_to",
                    "type": "address"
                },
                {
                    "indexed": false,
                    "internalType": "uint256",
                    "name": "_value",
                    "type": "uint256"
                }
            ],
            "name": "Finished",
            "type": "event"
        },
        {
            "anonymous": false,
            "inputs": [
                {
                    "indexed": true,
                    "internalType": "address",
                    "name": "_from",
                    "type": "address"
                },
                {
                    "indexed": true,
                    "internalType": "address",
                    "name": "_to",
                    "type": "address"
                },
                {
                    "indexed": false,
                    "internalType": "uint256",
                    "name": "_value",
                    "type": "uint256"
                }
            ],
            "name": "Inited",
            "type": "event"
        },
        {
            "inputs": [],
            "name": "AddCollateral",
            "outputs": [],
            "stateMutability": "payable",
            "type": "function"
        },
        {
            "inputs": [
                {
                    "internalType": "uint256",
                    "name": "_value",
                    "type": "uint256"
                },
                {
                    "internalType": "address",
                    "name": "_from",
                    "type": "address"
                },
                {
                    "internalType": "address payable",
                    "name": "_to",
                    "type": "address"
                },
                {
                    "internalType": "uint256",
                    "name": "_date",
                    "type": "uint256"
                }
            ],
            "name": "AddPremium",
            "outputs": [],
            "stateMutability": "payable",
            "type": "function"
        },
        {
            "inputs": [
                {
                    "internalType": "address",
                    "name": "",
                    "type": "address"
                }
            ],
            "name": "BalanceCollateral",
            "outputs": [
                {
                    "internalType": "uint256",
                    "name": "",
                    "type": "uint256"
                }
            ],
            "stateMutability": "view",
            "type": "function"
        },
        {
            "inputs": [
                {
                    "internalType": "address",
                    "name": "",
                    "type": "address"
                },
                {
                    "internalType": "uint256",
                    "name": "",
                    "type": "uint256"
                }
            ],
            "name": "Collaterals",
            "outputs": [
                {
                    "internalType": "address",
                    "name": "Address",
                    "type": "address"
                },
                {
                    "internalType": "uint256",
                    "name": "Value",
                    "type": "uint256"
                },
                {
                    "internalType": "enum TypeCollateral",
                    "name": "Type",
                    "type": "uint8"
                },
                {
                    "internalType": "uint256",
                    "name": "CreateDate",
                    "type": "uint256"
                }
            ],
            "stateMutability": "view",
            "type": "function"
        },
        {
            "inputs": [
                {
                    "internalType": "address",
                    "name": "_titular",
                    "type": "address"
                }
            ],
            "name": "FinishOption",
            "outputs": [],
            "stateMutability": "nonpayable",
            "type": "function"
        },
        {
            "inputs": [],
            "name": "Manager",
            "outputs": [
                {
                    "internalType": "address",
                    "name": "",
                    "type": "address"
                }
            ],
            "stateMutability": "view",
            "type": "function"
        },
        {
            "inputs": [
                {
                    "internalType": "address",
                    "name": "",
                    "type": "address"
                },
                {
                    "internalType": "uint256",
                    "name": "",
                    "type": "uint256"
                }
            ],
            "name": "Options",
            "outputs": [
                {
                    "internalType": "uint256",
                    "name": "Value",
                    "type": "uint256"
                },
                {
                    "internalType": "uint256",
                    "name": "Premium",
                    "type": "uint256"
                },
                {
                    "internalType": "enum StatusOption",
                    "name": "Status",
                    "type": "uint8"
                },
                {
                    "internalType": "enum TypeParticipant",
                    "name": "Type",
                    "type": "uint8"
                },
                {
                    "internalType": "uint256",
                    "name": "Strike",
                    "type": "uint256"
                },
                {
                    "internalType": "uint256",
                    "name": "MaturityDate",
                    "type": "uint256"
                },
                {
                    "internalType": "uint256",
                    "name": "AquisitionDate",
                    "type": "uint256"
                },
                {
                    "internalType": "address",
                    "name": "Titular",
                    "type": "address"
                },
                {
                    "internalType": "address payable",
                    "name": "Laucher",
                    "type": "address"
                }
            ],
            "stateMutability": "view",
            "type": "function"
        },
        {
            "inputs": [
                {
                    "internalType": "address",
                    "name": "_to",
                    "type": "address"
                },
                {
                    "internalType": "uint256",
                    "name": "value",
                    "type": "uint256"
                }
            ],
            "name": "RetireCollateral",
            "outputs": [],
            "stateMutability": "nonpayable",
            "type": "function"
        },
        {
            "inputs": [],
            "name": "RetireCollateral",
            "outputs": [],
            "stateMutability": "payable",
            "type": "function"
        },
        {
            "inputs": [
                {
                    "internalType": "address payable",
                    "name": "_laucher",
                    "type": "address"
                },
                {
                    "internalType": "uint256",
                    "name": "_value",
                    "type": "uint256"
                },
                {
                    "internalType": "uint256",
                    "name": "_maturityDate",
                    "type": "uint256"
                },
                {
                    "internalType": "uint256",
                    "name": "_strike",
                    "type": "uint256"
                }
            ],
            "name": "StartOption",
            "outputs": [],
            "stateMutability": "payable",
            "type": "function"
        }
    ],
    "bytecode": "608060405234801561001057600080fd5b50610d69806100206000396000f3fe6080604052600436106100915760003560e01c80637c591792116100595780637c5917921461022b5780638a05be52146102705780639ab515ac146102a9578063f252f698146102b1578063fa338704146102e957610091565b806310c5874d1461009657806319676e38146100cb57806327bd6bad146101435780636e97a4a11461014b57806378357e53146101fa575b600080fd5b3480156100a257600080fd5b506100c9600480360360208110156100b957600080fd5b50356001600160a01b0316610325565b005b3480156100d757600080fd5b50610104600480360360408110156100ee57600080fd5b506001600160a01b0381351690602001356106aa565b60405180856001600160a01b0316815260200184815260200183600181111561012957fe5b815260200182815260200194505050505060405180910390f35b6100c9610700565b34801561015757600080fd5b506101846004803603604081101561016e57600080fd5b506001600160a01b0381351690602001356107c9565b604051808a81526020018981526020018860018111156101a057fe5b81526020018760018111156101b157fe5b8152602001868152602001858152602001848152602001836001600160a01b03168152602001826001600160a01b03168152602001995050505050505050505060405180910390f35b34801561020657600080fd5b5061020f610845565b604080516001600160a01b039092168252519081900360200190f35b34801561023757600080fd5b5061025e6004803603602081101561024e57600080fd5b50356001600160a01b0316610854565b60408051918252519081900360200190f35b34801561027c57600080fd5b506100c96004803603604081101561029357600080fd5b506001600160a01b038135169060200135610866565b6100c9610924565b6100c9600480360360808110156102c757600080fd5b506001600160a01b038135169060208101359060408101359060600135610949565b6100c9600480360360808110156102ff57600080fd5b508035906001600160a01b03602082013581169160408101359091169060600135610acf565b806001600160a01b03811633148061034a57506000546001600160a01b038281169116145b61035357600080fd5b6001600160a01b0382166000908152600360209081526040808320805482518185028101850190935280835260609492939192909184015b8282101561047157838290600052602060002090600802016040518061012001604052908160008201548152602001600182015481526020016002820160009054906101000a900460ff1660018111156103e157fe5b60018111156103ec57fe5b81526020016002820160019054906101000a900460ff16600181111561040e57fe5b600181111561041957fe5b81526003820154602080830191909152600483015460408301526005830154606083015260068301546001600160a01b03908116608084015260079093015490921660a090910152908252600192909201910161038b565b5050825192935060009150505b818110156106a357600083828151811061049457fe5b60200260200101516040015160018111156104ab57fe5b141561069b576060600160008584815181106104c357fe5b602002602001015160e001516001600160a01b03166001600160a01b03168152602001908152602001600020805480602002602001604051908101604052809291908181526020016000905b8282101561058f576000848152602090819020604080516080810182526004860290920180546001600160a01b03168352600180820154948401949094526002810154929390929184019160ff169081111561056757fe5b600181111561057257fe5b81526020016003820154815250508152602001906001019061050f565b5050505090506000815190506000805b8281101561060f578381815181106105b357fe5b602002602001015160200151820191508685815181106105cf57fe5b60200260200101516080015182106105e65761060f565b6106078786815181106105f557fe5b602002602001015160e0015183610866565b60010161059f565b5085848151811061061c57fe5b602002602001015161010001516001600160a01b03166108fc829081150290604051600060405180830381858888f19350505050158015610661573d6000803e3d6000fd5b50600186858151811061067057fe5b602002602001015160400190600181111561068757fe5b9081600181111561069457fe5b9052505050505b60010161047e565b5050505050565b600160205281600052604060002081815481106106c657600080fd5b600091825260209091206004909102018054600182015460028301546003909301546001600160a01b039092169450925060ff9091169084565b610708610c7a565b6040805160808101825233815234602082015290810160005b815242602091820152336000908152600180835260408083208054808401825590845292849020855160049094020180546001600160a01b0319166001600160a01b03909416939093178355928401518282015591830151600282018054949550859492939192909160ff1990911690838181111561079c57fe5b0217905550606091909101516003909101553360009081526001602052604090206107c690610b74565b50565b600360205281600052604060002081815481106107e557600080fd5b60009182526020909120600890910201805460018201546002830154600384015460048501546005860154600687015460079097015495985093965060ff8084169661010090940416949193909290916001600160a01b03918216911689565b6000546001600160a01b031681565b60026020526000908152604090205481565b61086e610c7a565b50604080516080810182526001600160a01b038481168252602080830185815260018486018181524260608701523360009081528285529687208054808401825590885293909620855160049094020180546001600160a01b03191693909416929092178355518282015592516002820180549394859460ff19169083818111156108f557fe5b02179055506060919091015160039091015533600090815260016020526040902061091f90610b74565b505050565b61092c610c7a565b604080516080810182523381523460208201529081016001610721565b336000908152600260205260409020546103e8340190811061099c5760405162461bcd60e51b8152600401808060200182810382526028815260200180610d0c6028913960400191505060405180910390fd5b6109a4610ca2565b5060408051610120810182528581526103e860208083019182526000838501818152606085018290526080850188905260a085018990524260c08601523360e086018190526001600160a01b038c16610100870152825260038352948120805460018082018355918352929091208451600890930201918255915181830155925160028401805493948594909360ff1991909116908381811115610a4457fe5b0217905550606082015160028201805461ff001916610100836001811115610a6857fe5b02179055506080820151600382015560a0820151600482015560c0820151600582015560e08201516006820180546001600160a01b03199081166001600160a01b039384161790915561010090930151600790920180549093169116179055505050505050565b3467016345785d8a00001415610ae457600080fd5b60405134906001600160a01b0384169082156108fc029083906000818181858888f19350505050158015610b1c573d6000803e3d6000fd5b50604080518681526001600160a01b0380871660208301528516818301526060810184905290517f05d239d0e13dd23538b848a5ab00fb1276a3c85a32d7149095eb4385ca678cc79181900360800190a15050505050565b80543360009081526002602052604081208190555b8181101561091f576000838281548110610b9f57fe5b600091825260209091206002600490920201015460ff166001811115610bc157fe5b1415610c0357828181548110610bd357fe5b60009182526020808320600160049093020191909101543383526002909152604090912080549091019055610c72565b6001838281548110610c1157fe5b600091825260209091206002600490920201015460ff166001811115610c3357fe5b141561009157828181548110610c4557fe5b60009182526020808320600160049093020191909101543383526002909152604090912080549190910390555b600101610b89565b6040805160808101825260008082526020820181905290918201908152602001600081525090565b604051806101200160405280600081526020016000815260200160006001811115610cc957fe5b81526020016000815260200160008152602001600081526020016000815260200160006001600160a01b0316815260200160006001600160a01b03168152509056fe576974686f757420636f6c6c61746572616c20746f206f70656e20746865206f7065726174696f6ea26469706673582212207944da9423bf785846daa7c3df8164fdd8866f5d1ea271bbcaf77216ecbf705364736f6c63430007040033",
    "sourcePath": "c:/private/Defi/backend/Options/contracts/option.sol",
    "compiler": {
        "name": "solc",
        "version": "0.7.4+commit.3f05b770"
    },
    "functionHashes": {
        "AddCollateral()": "27bd6bad",
        "AddPremium(uint256,address,address,uint256)": "fa338704",
        "BalanceCollateral(address)": "7c591792",
        "Collaterals(address,uint256)": "19676e38",
        "FinishOption(address)": "10c5874d",
        "Manager()": "78357e53",
        "Options(address,uint256)": "6e97a4a1",
        "RetireCollateral()": "9ab515ac",
        "RetireCollateral(address,uint256)": "8a05be52",
        "StartOption(address,uint256,uint256,uint256)": "f252f698"
    },
    "gasEstimates": {
        "creation": {
            "codeDepositCost": "686600",
            "executionCost": "721",
            "totalCost": "687321"
        },
        "external": {
            "AddCollateral()": "infinite",
            "AddPremium(uint256,address,address,uint256)": "infinite",
            "BalanceCollateral(address)": "1124",
            "Collaterals(address,uint256)": "4652",
            "FinishOption(address)": "infinite",
            "Manager()": "1126",
            "Options(address,uint256)": "8126",
            "RetireCollateral()": "infinite",
            "RetireCollateral(address,uint256)": "infinite",
            "StartOption(address,uint256,uint256,uint256)": "infinite"
        }
    }
}