{
    "contractName": "PutCall",
    "abi": [
        {
            "inputs": [
                {
                    "components": [
                        {
                            "components": [
                                {
                                    "internalType": "uint256",
                                    "name": "Value",
                                    "type": "uint256"
                                },
                                {
                                    "internalType": "string",
                                    "name": "Name",
                                    "type": "string"
                                },
                                {
                                    "internalType": "string",
                                    "name": "Description",
                                    "type": "string"
                                },
                                {
                                    "internalType": "string",
                                    "name": "Initials",
                                    "type": "string"
                                }
                            ],
                            "internalType": "struct Asset[]",
                            "name": "Assets",
                            "type": "tuple[]"
                        },
                        {
                            "internalType": "uint256",
                            "name": "CreateDate",
                            "type": "uint256"
                        }
                    ],
                    "internalType": "struct Collateral",
                    "name": "_colateral",
                    "type": "tuple"
                }
            ],
            "name": "AddColateral",
            "outputs": [],
            "stateMutability": "nonpayable",
            "type": "function"
        },
        {
            "inputs": [],
            "name": "AddCollateral",
            "outputs": [
                {
                    "internalType": "bool",
                    "name": "",
                    "type": "bool"
                }
            ],
            "stateMutability": "pure",
            "type": "function"
        },
        {
            "inputs": [],
            "name": "AddOrRemove",
            "outputs": [],
            "stateMutability": "nonpayable",
            "type": "function"
        },
        {
            "inputs": [],
            "name": "AquisitionDate",
            "outputs": [
                {
                    "internalType": "uint256",
                    "name": "",
                    "type": "uint256"
                }
            ],
            "stateMutability": "view",
            "type": "function"
        },
        {
            "inputs": [],
            "name": "AssetObject",
            "outputs": [
                {
                    "internalType": "uint256",
                    "name": "Value",
                    "type": "uint256"
                },
                {
                    "internalType": "string",
                    "name": "Name",
                    "type": "string"
                },
                {
                    "internalType": "string",
                    "name": "Description",
                    "type": "string"
                },
                {
                    "internalType": "string",
                    "name": "Initials",
                    "type": "string"
                }
            ],
            "stateMutability": "view",
            "type": "function"
        },
        {
            "inputs": [
                {
                    "internalType": "uint256",
                    "name": "",
                    "type": "uint256"
                }
            ],
            "name": "Collaterals",
            "outputs": [
                {
                    "internalType": "uint256",
                    "name": "CreateDate",
                    "type": "uint256"
                }
            ],
            "stateMutability": "view",
            "type": "function"
        },
        {
            "inputs": [],
            "name": "FinishOption",
            "outputs": [],
            "stateMutability": "nonpayable",
            "type": "function"
        },
        {
            "inputs": [],
            "name": "MaturityDate",
            "outputs": [
                {
                    "internalType": "uint256",
                    "name": "",
                    "type": "uint256"
                }
            ],
            "stateMutability": "view",
            "type": "function"
        },
        {
            "inputs": [],
            "name": "Premium",
            "outputs": [
                {
                    "internalType": "uint256",
                    "name": "",
                    "type": "uint256"
                }
            ],
            "stateMutability": "view",
            "type": "function"
        },
        {
            "inputs": [],
            "name": "ProcessOption",
            "outputs": [],
            "stateMutability": "nonpayable",
            "type": "function"
        },
        {
            "inputs": [],
            "name": "RetireCollateral",
            "outputs": [
                {
                    "internalType": "bool",
                    "name": "",
                    "type": "bool"
                }
            ],
            "stateMutability": "pure",
            "type": "function"
        },
        {
            "inputs": [],
            "name": "Status",
            "outputs": [
                {
                    "internalType": "enum StatusOption",
                    "name": "",
                    "type": "uint8"
                }
            ],
            "stateMutability": "view",
            "type": "function"
        },
        {
            "inputs": [],
            "name": "Strike",
            "outputs": [
                {
                    "internalType": "uint256",
                    "name": "",
                    "type": "uint256"
                }
            ],
            "stateMutability": "view",
            "type": "function"
        }
    ],
    "bytecode": "608060405234801561001057600080fd5b50610833806100206000396000f3fe608060405234801561001057600080fd5b50600436106100cf5760003560e01c806381531c641161008c578063c055b24011610066578063c055b24014610161578063d3e3a0ef14610169578063ec63dbd214610171578063f545b2ea14610179576100cf565b806381531c64146101445780639ab515ac146100d45780639f5f356514610159576100cf565b806327bd6bad146100d457806340e266ff146100f257806345f09ce91461010a5780635e4a25301461011f5780636e6cdc2d14610129578063748fc3d41461013c575b600080fd5b6100dc61018c565b6040516100e991906106fc565b60405180910390f35b6100fa610191565b6040516100e99493929190610738565b610112610344565b6040516100e99190610707565b61012761034d565b005b610127610137366004610529565b61034f565b610127610352565b61014c61041b565b6040516100e9919061072f565b61014c610421565b61014c610427565b61014c61042d565b610127610433565b61014c610187366004610699565b61046e565b600190565b60008054600180549192916101a5906107ac565b80601f01602080910402602001604051908101604052809291908181526020018280546101d1906107ac565b801561021e5780601f106101f35761010080835404028352916020019161021e565b820191906000526020600020905b81548152906001019060200180831161020157829003601f168201915b505050505090806002018054610233906107ac565b80601f016020809104026020016040519081016040528092919081815260200182805461025f906107ac565b80156102ac5780601f10610281576101008083540402835291602001916102ac565b820191906000526020600020905b81548152906001019060200180831161028f57829003601f168201915b5050505050908060030180546102c1906107ac565b80601f01602080910402602001604051908101604052809291908181526020018280546102ed906107ac565b801561033a5780601f1061030f5761010080835404028352916020019161033a565b820191906000526020600020905b81548152906001019060200180831161031d57829003601f168201915b5050505050905084565b60095460ff1681565b565b50565b306001600160a01b0316639ab515ac6040518163ffffffff1660e01b8152600401602060405180830381600087803b15801561038d57600080fd5b505af11580156103a1573d6000803e3d6000fd5b505050506040513d601f19601f820116820180604052508101906103c59190610502565b50306001600160a01b0316635e4a25306040518163ffffffff1660e01b8152600401600060405180830381600087803b15801561040157600080fd5b505af1158015610415573d6000803e3d6000fd5b50505050565b60045481565b60075481565b60055481565b60065481565b306001600160a01b03166327bd6bad6040518163ffffffff1660e01b8152600401602060405180830381600087803b15801561038d57600080fd5b6008818154811061047e57600080fd5b6000918252602090912060016002909202010154905081565b600082601f8301126104a7578081fd5b813567ffffffffffffffff8111156104c1576104c16107e7565b6104d4601f8201601f1916602001610782565b8181528460208386010111156104e8578283fd5b816020850160208301379081016020019190915292915050565b600060208284031215610513578081fd5b81518015158114610522578182fd5b9392505050565b6000602080838503121561053b578182fd5b67ffffffffffffffff8084351115610551578283fd5b8335840160408187031215610564578384fd5b60405160408101818110848211171561057f5761057f6107e7565b604052813583101561058f578485fd5b8135820187601f8201126105a1578586fd5b83813511156105b2576105b26107e7565b6105c0858683350201610782565b8135815285810190868301885b843581101561068057813585016080818e03601f190112156105ed578a8bfd5b6105f76080610782565b8a820135815260408201358a81111561060e578c8dfd5b61061c8f8d83860101610497565b8c830152508960608301351115610631578b8cfd5b6106438e8c6060850135850101610497565b604082015260808201358a811115610659578c8dfd5b6106678f8d83860101610497565b60608301525085525092880192908801906001016105cd565b5050835250509083013592810192909252509392505050565b6000602082840312156106aa578081fd5b5035919050565b60008151808452815b818110156106d6576020818501810151868301820152016106ba565b818111156106e75782602083870101525b50601f01601f19169290920160200192915050565b901515815260200190565b602081016002831061072957634e487b7160e01b600052602160045260246000fd5b91905290565b90815260200190565b60008582526080602083015261075160808301866106b1565b828103604084015261076381866106b1565b9050828103606084015261077781856106b1565b979650505050505050565b60405181810167ffffffffffffffff811182821017156107a4576107a46107e7565b604052919050565b6002810460018216806107c057607f821691505b602082108114156107e157634e487b7160e01b600052602260045260246000fd5b50919050565b634e487b7160e01b600052604160045260246000fdfea264697066735822122006c21c33085a67c9f6da10d180d3393ad79002f75e113bd9e7aa3b417bdf272964736f6c63430008000033",
    "sourcePath": "c:/private/Defi/Options/contracts/option.sol",
    "compiler": {
        "name": "solc",
        "version": "0.8.0+commit.c7dfd78e"
    },
    "functionHashes": {
        "AddColateral(((uint256,string,string,string)[],uint256))": "6e6cdc2d",
        "AddCollateral()": "27bd6bad",
        "AddOrRemove()": "5e4a2530",
        "AquisitionDate()": "9f5f3565",
        "AssetObject()": "40e266ff",
        "Collaterals(uint256)": "f545b2ea",
        "FinishOption()": "748fc3d4",
        "MaturityDate()": "d3e3a0ef",
        "Premium()": "c055b240",
        "ProcessOption()": "ec63dbd2",
        "RetireCollateral()": "9ab515ac",
        "Status()": "45f09ce9",
        "Strike()": "81531c64"
    },
    "gasEstimates": {
        "creation": {
            "codeDepositCost": "419800",
            "executionCost": "455",
            "totalCost": "420255"
        },
        "external": {
            "AddColateral(((uint256,string,string,string)[],uint256))": "infinite",
            "AddCollateral()": "235",
            "AddOrRemove()": "211",
            "AquisitionDate()": "1095",
            "AssetObject()": "infinite",
            "Collaterals(uint256)": "2104",
            "FinishOption()": "infinite",
            "MaturityDate()": "1072",
            "Premium()": "1050",
            "ProcessOption()": "infinite",
            "RetireCollateral()": "279",
            "Status()": "1105",
            "Strike()": "1051"
        }
    }
}